{
  "contractName": "CrescendoNFTToken",
  "abi": [
    {
      "inputs": [],
      "stateMutability": "nonpayable",
      "type": "constructor"
    },
    {
      "anonymous": false,
      "inputs": [
        {
          "indexed": true,
          "internalType": "address",
          "name": "owner",
          "type": "address"
        },
        {
          "indexed": true,
          "internalType": "address",
          "name": "approved",
          "type": "address"
        },
        {
          "indexed": true,
          "internalType": "uint256",
          "name": "tokenId",
          "type": "uint256"
        }
      ],
      "name": "Approval",
      "type": "event"
    },
    {
      "anonymous": false,
      "inputs": [
        {
          "indexed": true,
          "internalType": "address",
          "name": "owner",
          "type": "address"
        },
        {
          "indexed": true,
          "internalType": "address",
          "name": "operator",
          "type": "address"
        },
        {
          "indexed": false,
          "internalType": "bool",
          "name": "approved",
          "type": "bool"
        }
      ],
      "name": "ApprovalForAll",
      "type": "event"
    },
    {
      "anonymous": false,
      "inputs": [
        {
          "indexed": true,
          "internalType": "address",
          "name": "from",
          "type": "address"
        },
        {
          "indexed": true,
          "internalType": "address",
          "name": "to",
          "type": "address"
        },
        {
          "indexed": true,
          "internalType": "uint256",
          "name": "tokenId",
          "type": "uint256"
        }
      ],
      "name": "Transfer",
      "type": "event"
    },
    {
      "inputs": [
        {
          "internalType": "uint256",
          "name": "",
          "type": "uint256"
        }
      ],
      "name": "Items",
      "outputs": [
        {
          "internalType": "uint256",
          "name": "id",
          "type": "uint256"
        },
        {
          "internalType": "address",
          "name": "creator",
          "type": "address"
        },
        {
          "internalType": "string",
          "name": "uri",
          "type": "string"
        }
      ],
      "stateMutability": "view",
      "type": "function",
      "constant": true
    },
    {
      "inputs": [
        {
          "internalType": "address",
          "name": "to",
          "type": "address"
        },
        {
          "internalType": "uint256",
          "name": "tokenId",
          "type": "uint256"
        }
      ],
      "name": "approve",
      "outputs": [],
      "stateMutability": "nonpayable",
      "type": "function"
    },
    {
      "inputs": [
        {
          "internalType": "address",
          "name": "owner",
          "type": "address"
        }
      ],
      "name": "balanceOf",
      "outputs": [
        {
          "internalType": "uint256",
          "name": "",
          "type": "uint256"
        }
      ],
      "stateMutability": "view",
      "type": "function",
      "constant": true
    },
    {
      "inputs": [
        {
          "internalType": "uint256",
          "name": "tokenId",
          "type": "uint256"
        }
      ],
      "name": "getApproved",
      "outputs": [
        {
          "internalType": "address",
          "name": "",
          "type": "address"
        }
      ],
      "stateMutability": "view",
      "type": "function",
      "constant": true
    },
    {
      "inputs": [
        {
          "internalType": "address",
          "name": "owner",
          "type": "address"
        },
        {
          "internalType": "address",
          "name": "operator",
          "type": "address"
        }
      ],
      "name": "isApprovedForAll",
      "outputs": [
        {
          "internalType": "bool",
          "name": "",
          "type": "bool"
        }
      ],
      "stateMutability": "view",
      "type": "function",
      "constant": true
    },
    {
      "inputs": [],
      "name": "name",
      "outputs": [
        {
          "internalType": "string",
          "name": "",
          "type": "string"
        }
      ],
      "stateMutability": "view",
      "type": "function",
      "constant": true
    },
    {
      "inputs": [
        {
          "internalType": "uint256",
          "name": "tokenId",
          "type": "uint256"
        }
      ],
      "name": "ownerOf",
      "outputs": [
        {
          "internalType": "address",
          "name": "",
          "type": "address"
        }
      ],
      "stateMutability": "view",
      "type": "function",
      "constant": true
    },
    {
      "inputs": [
        {
          "internalType": "address",
          "name": "from",
          "type": "address"
        },
        {
          "internalType": "address",
          "name": "to",
          "type": "address"
        },
        {
          "internalType": "uint256",
          "name": "tokenId",
          "type": "uint256"
        }
      ],
      "name": "safeTransferFrom",
      "outputs": [],
      "stateMutability": "nonpayable",
      "type": "function"
    },
    {
      "inputs": [
        {
          "internalType": "address",
          "name": "from",
          "type": "address"
        },
        {
          "internalType": "address",
          "name": "to",
          "type": "address"
        },
        {
          "internalType": "uint256",
          "name": "tokenId",
          "type": "uint256"
        },
        {
          "internalType": "bytes",
          "name": "_data",
          "type": "bytes"
        }
      ],
      "name": "safeTransferFrom",
      "outputs": [],
      "stateMutability": "nonpayable",
      "type": "function"
    },
    {
      "inputs": [
        {
          "internalType": "address",
          "name": "operator",
          "type": "address"
        },
        {
          "internalType": "bool",
          "name": "approved",
          "type": "bool"
        }
      ],
      "name": "setApprovalForAll",
      "outputs": [],
      "stateMutability": "nonpayable",
      "type": "function"
    },
    {
      "inputs": [
        {
          "internalType": "bytes4",
          "name": "interfaceId",
          "type": "bytes4"
        }
      ],
      "name": "supportsInterface",
      "outputs": [
        {
          "internalType": "bool",
          "name": "",
          "type": "bool"
        }
      ],
      "stateMutability": "view",
      "type": "function",
      "constant": true
    },
    {
      "inputs": [],
      "name": "symbol",
      "outputs": [
        {
          "internalType": "string",
          "name": "",
          "type": "string"
        }
      ],
      "stateMutability": "view",
      "type": "function",
      "constant": true
    },
    {
      "inputs": [
        {
          "internalType": "address",
          "name": "from",
          "type": "address"
        },
        {
          "internalType": "address",
          "name": "to",
          "type": "address"
        },
        {
          "internalType": "uint256",
          "name": "tokenId",
          "type": "uint256"
        }
      ],
      "name": "transferFrom",
      "outputs": [],
      "stateMutability": "nonpayable",
      "type": "function"
    },
    {
      "inputs": [
        {
          "internalType": "string",
          "name": "uri",
          "type": "string"
        }
      ],
      "name": "createItem",
      "outputs": [
        {
          "internalType": "uint256",
          "name": "",
          "type": "uint256"
        }
      ],
      "stateMutability": "nonpayable",
      "type": "function"
    },
    {
      "inputs": [
        {
          "internalType": "uint256",
          "name": "tokenId",
          "type": "uint256"
        }
      ],
      "name": "tokenURI",
      "outputs": [
        {
          "internalType": "string",
          "name": "",
          "type": "string"
        }
      ],
      "stateMutability": "view",
      "type": "function",
      "constant": true
    }
  ],
  "bytecode": "0x60806040523480156200001157600080fd5b506040518060400160405280601181526020017f4372657363656e646f4e4654546f6b656e0000000000000000000000000000008152506040518060400160405280600481526020017f434e465400000000000000000000000000000000000000000000000000000000815250816000908051906020019062000096929190620000b8565b508060019080519060200190620000af929190620000b8565b505050620001cd565b828054620000c69062000197565b90600052602060002090601f016020900481019282620000ea576000855562000136565b82601f106200010557805160ff191683800117855562000136565b8280016001018555821562000136579182015b828111156200013557825182559160200191906001019062000118565b5b50905062000145919062000149565b5090565b5b80821115620001645760008160009055506001016200014a565b5090565b7f4e487b7100000000000000000000000000000000000000000000000000000000600052602260045260246000fd5b60006002820490506001821680620001b057607f821691505b60208210811415620001c757620001c662000168565b5b50919050565b61287e80620001dd6000396000f3fe608060405234801561001057600080fd5b50600436106100f55760003560e01c806342842e0e11610097578063a22cb46511610066578063a22cb465146102ac578063b88d4fde146102c8578063c87b56dd146102e4578063e985e9c514610314576100f5565b806342842e0e146102125780636352211e1461022e57806370a082311461025e57806395d89b411461028e576100f5565b8063095ea7b3116100d3578063095ea7b31461017857806317b47cc41461019457806323b872dd146101c65780633d54eebb146101e2576100f5565b806301ffc9a7146100fa57806306fdde031461012a578063081812fc14610148575b600080fd5b610114600480360381019061010f9190611842565b610344565b604051610121919061188a565b60405180910390f35b610132610426565b60405161013f919061193e565b60405180910390f35b610162600480360381019061015d9190611996565b6104b8565b60405161016f9190611a04565b60405180910390f35b610192600480360381019061018d9190611a4b565b61053d565b005b6101ae60048036038101906101a99190611996565b610655565b6040516101bd93929190611a9a565b60405180910390f35b6101e060048036038101906101db9190611ad8565b610727565b005b6101fc60048036038101906101f79190611c60565b610787565b6040516102099190611ca9565b60405180910390f35b61022c60048036038101906102279190611ad8565b610869565b005b61024860048036038101906102439190611996565b610889565b6040516102559190611a04565b60405180910390f35b61027860048036038101906102739190611cc4565b61093b565b6040516102859190611ca9565b60405180910390f35b6102966109f3565b6040516102a3919061193e565b60405180910390f35b6102c660048036038101906102c19190611d1d565b610a85565b005b6102e260048036038101906102dd9190611dfe565b610c06565b005b6102fe60048036038101906102f99190611996565b610c68565b60405161030b919061193e565b60405180910390f35b61032e60048036038101906103299190611e81565b610d58565b60405161033b919061188a565b60405180910390f35b60007f80ac58cd000000000000000000000000000000000000000000000000000000007bffffffffffffffffffffffffffffffffffffffffffffffffffffffff1916827bffffffffffffffffffffffffffffffffffffffffffffffffffffffff1916148061040f57507f5b5e139f000000000000000000000000000000000000000000000000000000007bffffffffffffffffffffffffffffffffffffffffffffffffffffffff1916827bffffffffffffffffffffffffffffffffffffffffffffffffffffffff1916145b8061041f575061041e82610dec565b5b9050919050565b60606000805461043590611ef0565b80601f016020809104026020016040519081016040528092919081815260200182805461046190611ef0565b80156104ae5780601f10610483576101008083540402835291602001916104ae565b820191906000526020600020905b81548152906001019060200180831161049157829003601f168201915b5050505050905090565b60006104c382610e56565b610502576040517f08c379a00000000000000000000000000000000000000000000000000000000081526004016104f990611f94565b60405180910390fd5b6004600083815260200190815260200160002060009054906101000a900473ffffffffffffffffffffffffffffffffffffffff169050919050565b600061054882610889565b90508073ffffffffffffffffffffffffffffffffffffffff168373ffffffffffffffffffffffffffffffffffffffff1614156105b9576040517f08c379a00000000000000000000000000000000000000000000000000000000081526004016105b090612026565b60405180910390fd5b8073ffffffffffffffffffffffffffffffffffffffff166105d8610ec2565b73ffffffffffffffffffffffffffffffffffffffff161480610607575061060681610601610ec2565b610d58565b5b610646576040517f08c379a000000000000000000000000000000000000000000000000000000000815260040161063d906120b8565b60405180910390fd5b6106508383610eca565b505050565b60076020528060005260406000206000915090508060000154908060010160009054906101000a900473ffffffffffffffffffffffffffffffffffffffff16908060020180546106a490611ef0565b80601f01602080910402602001604051908101604052809291908181526020018280546106d090611ef0565b801561071d5780601f106106f25761010080835404028352916020019161071d565b820191906000526020600020905b81548152906001019060200180831161070057829003601f168201915b5050505050905083565b610738610732610ec2565b82610f83565b610777576040517f08c379a000000000000000000000000000000000000000000000000000000000815260040161076e9061214a565b60405180910390fd5b610782838383611061565b505050565b600061079360066112bd565b600061079f60066112d3565b90506107ab33826112e1565b60405180606001604052808281526020013373ffffffffffffffffffffffffffffffffffffffff16815260200184815250600760008381526020019081526020016000206000820151816000015560208201518160010160006101000a81548173ffffffffffffffffffffffffffffffffffffffff021916908373ffffffffffffffffffffffffffffffffffffffff160217905550604082015181600201908051906020019061085c929190611733565b5090505080915050919050565b61088483838360405180602001604052806000815250610c06565b505050565b6000806002600084815260200190815260200160002060009054906101000a900473ffffffffffffffffffffffffffffffffffffffff169050600073ffffffffffffffffffffffffffffffffffffffff168173ffffffffffffffffffffffffffffffffffffffff161415610932576040517f08c379a0000000000000000000000000000000000000000000000000000000008152600401610929906121dc565b60405180910390fd5b80915050919050565b60008073ffffffffffffffffffffffffffffffffffffffff168273ffffffffffffffffffffffffffffffffffffffff1614156109ac576040517f08c379a00000000000000000000000000000000000000000000000000000000081526004016109a39061226e565b60405180910390fd5b600360008373ffffffffffffffffffffffffffffffffffffffff1673ffffffffffffffffffffffffffffffffffffffff168152602001908152602001600020549050919050565b606060018054610a0290611ef0565b80601f0160208091040260200160405190810160405280929190818152602001828054610a2e90611ef0565b8015610a7b5780601f10610a5057610100808354040283529160200191610a7b565b820191906000526020600020905b815481529060010190602001808311610a5e57829003601f168201915b5050505050905090565b610a8d610ec2565b73ffffffffffffffffffffffffffffffffffffffff168273ffffffffffffffffffffffffffffffffffffffff161415610afb576040517f08c379a0000000000000000000000000000000000000000000000000000000008152600401610af2906122da565b60405180910390fd5b8060056000610b08610ec2565b73ffffffffffffffffffffffffffffffffffffffff1673ffffffffffffffffffffffffffffffffffffffff16815260200190815260200160002060008473ffffffffffffffffffffffffffffffffffffffff1673ffffffffffffffffffffffffffffffffffffffff16815260200190815260200160002060006101000a81548160ff0219169083151502179055508173ffffffffffffffffffffffffffffffffffffffff16610bb5610ec2565b73ffffffffffffffffffffffffffffffffffffffff167f17307eab39ab6107e8899845ad3d59bd9653f200f220920489ca2b5937696c3183604051610bfa919061188a565b60405180910390a35050565b610c17610c11610ec2565b83610f83565b610c56576040517f08c379a0000000000000000000000000000000000000000000000000000000008152600401610c4d9061214a565b60405180910390fd5b610c62848484846112ff565b50505050565b6060610c7382610e56565b610cb2576040517f08c379a0000000000000000000000000000000000000000000000000000000008152600401610ca99061236c565b60405180910390fd5b600760008381526020019081526020016000206002018054610cd390611ef0565b80601f0160208091040260200160405190810160405280929190818152602001828054610cff90611ef0565b8015610d4c5780601f10610d2157610100808354040283529160200191610d4c565b820191906000526020600020905b815481529060010190602001808311610d2f57829003601f168201915b50505050509050919050565b6000600560008473ffffffffffffffffffffffffffffffffffffffff1673ffffffffffffffffffffffffffffffffffffffff16815260200190815260200160002060008373ffffffffffffffffffffffffffffffffffffffff1673ffffffffffffffffffffffffffffffffffffffff16815260200190815260200160002060009054906101000a900460ff16905092915050565b60007f01ffc9a7000000000000000000000000000000000000000000000000000000007bffffffffffffffffffffffffffffffffffffffffffffffffffffffff1916827bffffffffffffffffffffffffffffffffffffffffffffffffffffffff1916149050919050565b60008073ffffffffffffffffffffffffffffffffffffffff166002600084815260200190815260200160002060009054906101000a900473ffffffffffffffffffffffffffffffffffffffff1673ffffffffffffffffffffffffffffffffffffffff1614159050919050565b600033905090565b816004600083815260200190815260200160002060006101000a81548173ffffffffffffffffffffffffffffffffffffffff021916908373ffffffffffffffffffffffffffffffffffffffff160217905550808273ffffffffffffffffffffffffffffffffffffffff16610f3d83610889565b73ffffffffffffffffffffffffffffffffffffffff167f8c5be1e5ebec7d5bd14f71427d1e84f3dd0314c0f7b2291e5b200ac8c7c3b92560405160405180910390a45050565b6000610f8e82610e56565b610fcd576040517f08c379a0000000000000000000000000000000000000000000000000000000008152600401610fc4906123fe565b60405180910390fd5b6000610fd883610889565b90508073ffffffffffffffffffffffffffffffffffffffff168473ffffffffffffffffffffffffffffffffffffffff16148061104757508373ffffffffffffffffffffffffffffffffffffffff1661102f846104b8565b73ffffffffffffffffffffffffffffffffffffffff16145b8061105857506110578185610d58565b5b91505092915050565b8273ffffffffffffffffffffffffffffffffffffffff1661108182610889565b73ffffffffffffffffffffffffffffffffffffffff16146110d7576040517f08c379a00000000000000000000000000000000000000000000000000000000081526004016110ce90612490565b60405180910390fd5b600073ffffffffffffffffffffffffffffffffffffffff168273ffffffffffffffffffffffffffffffffffffffff161415611147576040517f08c379a000000000000000000000000000000000000000000000000000000000815260040161113e90612522565b60405180910390fd5b61115283838361135b565b61115d600082610eca565b6001600360008573ffffffffffffffffffffffffffffffffffffffff1673ffffffffffffffffffffffffffffffffffffffff16815260200190815260200160002060008282546111ad9190612571565b925050819055506001600360008473ffffffffffffffffffffffffffffffffffffffff1673ffffffffffffffffffffffffffffffffffffffff168152602001908152602001600020600082825461120491906125a5565b92505081905550816002600083815260200190815260200160002060006101000a81548173ffffffffffffffffffffffffffffffffffffffff021916908373ffffffffffffffffffffffffffffffffffffffff160217905550808273ffffffffffffffffffffffffffffffffffffffff168473ffffffffffffffffffffffffffffffffffffffff167fddf252ad1be2c89b69c2b068fc378daa952ba7f163c4a11628f55a4df523b3ef60405160405180910390a4505050565b6001816000016000828254019250508190555050565b600081600001549050919050565b6112fb828260405180602001604052806000815250611360565b5050565b61130a848484611061565b611316848484846113bb565b611355576040517f08c379a000000000000000000000000000000000000000000000000000000000815260040161134c9061266d565b60405180910390fd5b50505050565b505050565b61136a8383611552565b61137760008484846113bb565b6113b6576040517f08c379a00000000000000000000000000000000000000000000000000000000081526004016113ad9061266d565b60405180910390fd5b505050565b60006113dc8473ffffffffffffffffffffffffffffffffffffffff16611720565b15611545578373ffffffffffffffffffffffffffffffffffffffff1663150b7a02611405610ec2565b8786866040518563ffffffff1660e01b815260040161142794939291906126e2565b602060405180830381600087803b15801561144157600080fd5b505af192505050801561147257506040513d601f19601f8201168201806040525081019061146f9190612743565b60015b6114f5573d80600081146114a2576040519150601f19603f3d011682016040523d82523d6000602084013e6114a7565b606091505b506000815114156114ed576040517f08c379a00000000000000000000000000000000000000000000000000000000081526004016114e49061266d565b60405180910390fd5b805181602001fd5b63150b7a0260e01b7bffffffffffffffffffffffffffffffffffffffffffffffffffffffff1916817bffffffffffffffffffffffffffffffffffffffffffffffffffffffff19161491505061154a565b600190505b949350505050565b600073ffffffffffffffffffffffffffffffffffffffff168273ffffffffffffffffffffffffffffffffffffffff1614156115c2576040517f08c379a00000000000000000000000000000000000000000000000000000000081526004016115b9906127bc565b60405180910390fd5b6115cb81610e56565b1561160b576040517f08c379a000000000000000000000000000000000000000000000000000000000815260040161160290612828565b60405180910390fd5b6116176000838361135b565b6001600360008473ffffffffffffffffffffffffffffffffffffffff1673ffffffffffffffffffffffffffffffffffffffff168152602001908152602001600020600082825461166791906125a5565b92505081905550816002600083815260200190815260200160002060006101000a81548173ffffffffffffffffffffffffffffffffffffffff021916908373ffffffffffffffffffffffffffffffffffffffff160217905550808273ffffffffffffffffffffffffffffffffffffffff16600073ffffffffffffffffffffffffffffffffffffffff167fddf252ad1be2c89b69c2b068fc378daa952ba7f163c4a11628f55a4df523b3ef60405160405180910390a45050565b600080823b905060008111915050919050565b82805461173f90611ef0565b90600052602060002090601f01602090048101928261176157600085556117a8565b82601f1061177a57805160ff19168380011785556117a8565b828001600101855582156117a8579182015b828111156117a757825182559160200191906001019061178c565b5b5090506117b591906117b9565b5090565b5b808211156117d25760008160009055506001016117ba565b5090565b6000604051905090565b600080fd5b600080fd5b60007fffffffff0000000000000000000000000000000000000000000000000000000082169050919050565b61181f816117ea565b811461182a57600080fd5b50565b60008135905061183c81611816565b92915050565b600060208284031215611858576118576117e0565b5b60006118668482850161182d565b91505092915050565b60008115159050919050565b6118848161186f565b82525050565b600060208201905061189f600083018461187b565b92915050565b600081519050919050565b600082825260208201905092915050565b60005b838110156118df5780820151818401526020810190506118c4565b838111156118ee576000848401525b50505050565b6000601f19601f8301169050919050565b6000611910826118a5565b61191a81856118b0565b935061192a8185602086016118c1565b611933816118f4565b840191505092915050565b600060208201905081810360008301526119588184611905565b905092915050565b6000819050919050565b61197381611960565b811461197e57600080fd5b50565b6000813590506119908161196a565b92915050565b6000602082840312156119ac576119ab6117e0565b5b60006119ba84828501611981565b91505092915050565b600073ffffffffffffffffffffffffffffffffffffffff82169050919050565b60006119ee826119c3565b9050919050565b6119fe816119e3565b82525050565b6000602082019050611a1960008301846119f5565b92915050565b611a28816119e3565b8114611a3357600080fd5b50565b600081359050611a4581611a1f565b92915050565b60008060408385031215611a6257611a616117e0565b5b6000611a7085828601611a36565b9250506020611a8185828601611981565b9150509250929050565b611a9481611960565b82525050565b6000606082019050611aaf6000830186611a8b565b611abc60208301856119f5565b8181036040830152611ace8184611905565b9050949350505050565b600080600060608486031215611af157611af06117e0565b5b6000611aff86828701611a36565b9350506020611b1086828701611a36565b9250506040611b2186828701611981565b9150509250925092565b600080fd5b600080fd5b7f4e487b7100000000000000000000000000000000000000000000000000000000600052604160045260246000fd5b611b6d826118f4565b810181811067ffffffffffffffff82111715611b8c57611b8b611b35565b5b80604052505050565b6000611b9f6117d6565b9050611bab8282611b64565b919050565b600067ffffffffffffffff821115611bcb57611bca611b35565b5b611bd4826118f4565b9050602081019050919050565b82818337600083830152505050565b6000611c03611bfe84611bb0565b611b95565b905082815260208101848484011115611c1f57611c1e611b30565b5b611c2a848285611be1565b509392505050565b600082601f830112611c4757611c46611b2b565b5b8135611c57848260208601611bf0565b91505092915050565b600060208284031215611c7657611c756117e0565b5b600082013567ffffffffffffffff811115611c9457611c936117e5565b5b611ca084828501611c32565b91505092915050565b6000602082019050611cbe6000830184611a8b565b92915050565b600060208284031215611cda57611cd96117e0565b5b6000611ce884828501611a36565b91505092915050565b611cfa8161186f565b8114611d0557600080fd5b50565b600081359050611d1781611cf1565b92915050565b60008060408385031215611d3457611d336117e0565b5b6000611d4285828601611a36565b9250506020611d5385828601611d08565b9150509250929050565b600067ffffffffffffffff821115611d7857611d77611b35565b5b611d81826118f4565b9050602081019050919050565b6000611da1611d9c84611d5d565b611b95565b905082815260208101848484011115611dbd57611dbc611b30565b5b611dc8848285611be1565b509392505050565b600082601f830112611de557611de4611b2b565b5b8135611df5848260208601611d8e565b91505092915050565b60008060008060808587031215611e1857611e176117e0565b5b6000611e2687828801611a36565b9450506020611e3787828801611a36565b9350506040611e4887828801611981565b925050606085013567ffffffffffffffff811115611e6957611e686117e5565b5b611e7587828801611dd0565b91505092959194509250565b60008060408385031215611e9857611e976117e0565b5b6000611ea685828601611a36565b9250506020611eb785828601611a36565b9150509250929050565b7f4e487b7100000000000000000000000000000000000000000000000000000000600052602260045260246000fd5b60006002820490506001821680611f0857607f821691505b60208210811415611f1c57611f1b611ec1565b5b50919050565b7f4552433732313a20617070726f76656420717565727920666f72206e6f6e657860008201527f697374656e7420746f6b656e0000000000000000000000000000000000000000602082015250565b6000611f7e602c836118b0565b9150611f8982611f22565b604082019050919050565b60006020820190508181036000830152611fad81611f71565b9050919050565b7f4552433732313a20617070726f76616c20746f2063757272656e74206f776e6560008201527f7200000000000000000000000000000000000000000000000000000000000000602082015250565b60006120106021836118b0565b915061201b82611fb4565b604082019050919050565b6000602082019050818103600083015261203f81612003565b9050919050565b7f4552433732313a20617070726f76652063616c6c6572206973206e6f74206f7760008201527f6e6572206e6f7220617070726f76656420666f7220616c6c0000000000000000602082015250565b60006120a26038836118b0565b91506120ad82612046565b604082019050919050565b600060208201905081810360008301526120d181612095565b9050919050565b7f4552433732313a207472616e736665722063616c6c6572206973206e6f74206f60008201527f776e6572206e6f7220617070726f766564000000000000000000000000000000602082015250565b60006121346031836118b0565b915061213f826120d8565b604082019050919050565b6000602082019050818103600083015261216381612127565b9050919050565b7f4552433732313a206f776e657220717565727920666f72206e6f6e657869737460008201527f656e7420746f6b656e0000000000000000000000000000000000000000000000602082015250565b60006121c66029836118b0565b91506121d18261216a565b604082019050919050565b600060208201905081810360008301526121f5816121b9565b9050919050565b7f4552433732313a2062616c616e636520717565727920666f7220746865207a6560008201527f726f206164647265737300000000000000000000000000000000000000000000602082015250565b6000612258602a836118b0565b9150612263826121fc565b604082019050919050565b600060208201905081810360008301526122878161224b565b9050919050565b7f4552433732313a20617070726f766520746f2063616c6c657200000000000000600082015250565b60006122c46019836118b0565b91506122cf8261228e565b602082019050919050565b600060208201905081810360008301526122f3816122b7565b9050919050565b7f4552433732314d657461646174613a2055524920717565727920666f72206e6f60008201527f6e6578697374656e7420746f6b656e0000000000000000000000000000000000602082015250565b6000612356602f836118b0565b9150612361826122fa565b604082019050919050565b6000602082019050818103600083015261238581612349565b9050919050565b7f4552433732313a206f70657261746f7220717565727920666f72206e6f6e657860008201527f697374656e7420746f6b656e0000000000000000000000000000000000000000602082015250565b60006123e8602c836118b0565b91506123f38261238c565b604082019050919050565b60006020820190508181036000830152612417816123db565b9050919050565b7f4552433732313a207472616e73666572206f6620746f6b656e2074686174206960008201527f73206e6f74206f776e0000000000000000000000000000000000000000000000602082015250565b600061247a6029836118b0565b91506124858261241e565b604082019050919050565b600060208201905081810360008301526124a98161246d565b9050919050565b7f4552433732313a207472616e7366657220746f20746865207a65726f2061646460008201527f7265737300000000000000000000000000000000000000000000000000000000602082015250565b600061250c6024836118b0565b9150612517826124b0565b604082019050919050565b6000602082019050818103600083015261253b816124ff565b9050919050565b7f4e487b7100000000000000000000000000000000000000000000000000000000600052601160045260246000fd5b600061257c82611960565b915061258783611960565b92508282101561259a57612599612542565b5b828203905092915050565b60006125b082611960565b91506125bb83611960565b9250827fffffffffffffffffffffffffffffffffffffffffffffffffffffffffffffffff038211156125f0576125ef612542565b5b828201905092915050565b7f4552433732313a207472616e7366657220746f206e6f6e20455243373231526560008201527f63656976657220696d706c656d656e7465720000000000000000000000000000602082015250565b60006126576032836118b0565b9150612662826125fb565b604082019050919050565b600060208201905081810360008301526126868161264a565b9050919050565b600081519050919050565b600082825260208201905092915050565b60006126b48261268d565b6126be8185612698565b93506126ce8185602086016118c1565b6126d7816118f4565b840191505092915050565b60006080820190506126f760008301876119f5565b61270460208301866119f5565b6127116040830185611a8b565b818103606083015261272381846126a9565b905095945050505050565b60008151905061273d81611816565b92915050565b600060208284031215612759576127586117e0565b5b60006127678482850161272e565b91505092915050565b7f4552433732313a206d696e7420746f20746865207a65726f2061646472657373600082015250565b60006127a66020836118b0565b91506127b182612770565b602082019050919050565b600060208201905081810360008301526127d581612799565b9050919050565b7f4552433732313a20746f6b656e20616c7265616479206d696e74656400000000600082015250565b6000612812601c836118b0565b915061281d826127dc565b602082019050919050565b6000602082019050818103600083015261284181612805565b905091905056fea2646970667358221220cc138d9fc2402c65ef884c8e495b03b42a63e0e78aeb4801cab56262b9b3a5f464736f6c63430008090033",
  "immutableReferences": {},
  "source": "pragma solidity ^0.8.0;\r\n\r\nimport \"../node_modules/@openzeppelin/contracts/token/ERC721/ERC721.sol\";\r\nimport \"../node_modules/@openzeppelin/contracts/utils/Counters.sol\";\r\n\r\ncontract CrescendoNFTToken is ERC721 {\r\n    using Counters for Counters.Counter;\r\n    Counters.Counter private _tokenIds;\r\n\r\n    constructor () ERC721(\"CrescendoNFTToken\", \"CNFT\"){}\r\n\r\n    struct Item {\r\n        uint256 id;\r\n        address creator;\r\n        string uri;\r\n\r\n    }\r\n\r\n    mapping(uint256 => Item) public Items;\r\n\r\n    function createItem(string memory uri) public returns (uint256) {\r\n        _tokenIds.increment();\r\n        uint256 newItemId = _tokenIds.current();\r\n        _safeMint(msg.sender, newItemId);\r\n\r\n        Items[newItemId] = Item(newItemId, msg.sender, uri);\r\n\r\n        return newItemId;\r\n    }\r\n\r\n    function tokenURI(uint256 tokenId) public view override returns (string memory) {\r\n        require(_exists(tokenId), \"ERC721Metadata: URI query for nonexistent token\");\r\n\r\n        return Items[tokenId].uri;\r\n    }\r\n}",
  "sourcePath": "D:\\CrescenDoge\\DEV\\contracts\\contracts\\CrescendoNFTToken.sol",
  "compiler": {
    "name": "solc",
    "version": "0.8.9+commit.e5eed63a.Emscripten.clang"
  },
  "schemaVersion": "3.4.3",
  "updatedAt": "2021-10-29T00:29:49.319Z",
  "networkType": "ethereum",
  "devdoc": {
    "kind": "dev",
    "methods": {
      "approve(address,uint256)": {
        "details": "See {IERC721-approve}."
      },
      "balanceOf(address)": {
        "details": "See {IERC721-balanceOf}."
      },
      "getApproved(uint256)": {
        "details": "See {IERC721-getApproved}."
      },
      "isApprovedForAll(address,address)": {
        "details": "See {IERC721-isApprovedForAll}."
      },
      "name()": {
        "details": "See {IERC721Metadata-name}."
      },
      "ownerOf(uint256)": {
        "details": "See {IERC721-ownerOf}."
      },
      "safeTransferFrom(address,address,uint256)": {
        "details": "See {IERC721-safeTransferFrom}."
      },
      "safeTransferFrom(address,address,uint256,bytes)": {
        "details": "See {IERC721-safeTransferFrom}."
      },
      "setApprovalForAll(address,bool)": {
        "details": "See {IERC721-setApprovalForAll}."
      },
      "supportsInterface(bytes4)": {
        "details": "See {IERC165-supportsInterface}."
      },
      "symbol()": {
        "details": "See {IERC721Metadata-symbol}."
      },
      "tokenURI(uint256)": {
        "details": "See {IERC721Metadata-tokenURI}."
      },
      "transferFrom(address,address,uint256)": {
        "details": "See {IERC721-transferFrom}."
      }
    },
    "version": 1
  },
  "userdoc": {
    "kind": "user",
    "methods": {},
    "version": 1
  }
}